{
  "txid": "acb1e896dd379786ab05b0ef1125d4a06f3cf5cb62f564f72b86e3ef6b0371ff",
  "hash": "f963c2629385a55b24b5f23717aa62938df65ef10f0e94655a0f1eea3f33cb8f",
  "version": 2,
  "size": 249,
  "vsize": 168,
  "weight": 669,
  "locktime": 0,
  "vin": [
    {
      "txid": "b8a37f70e2c3490e539fe4a066f6a15b4dd51120b659d6d52abfeda920aae73c",
      "vout": 0,
      "scriptSig": {
        "asm": "0014838d83b78ebb5c4a7b6191f4c86be3528a6ffac2",
        "hex": "160014838d83b78ebb5c4a7b6191f4c86be3528a6ffac2"
      },
      "txinwitness": [
        "3044022044d1c9cf131e1620ee9340531a27e3d5b284794a178183f41c357a9dd97a488a02206c49f40eaddd8e472a5dd20505ff2f64fbe7cadeb62c46c44acfa11a6292c4c301",
        "02c0cfc9eedac419475f3ed9aec20d3474add9bfe86eac0cad6f4a7303a30fbb34"
      ],
      "sequence": 4294967294
    }
  ],
  "vout": [
    {
      "value": 7.99996640,
      "n": 0,
      "scriptPubKey": {
        "asm": "OP_HASH160 6e4529a080512843f3fbef5c3945376ed8e51b80 OP_EQUAL",
        "hex": "a9146e4529a080512843f3fbef5c3945376ed8e51b8087",
        "reqSigs": 1,
        "type": "scripthash",
        "addresses": [
          "2N3JHAtRLTy4dG7Zt1mEfGd3mWSsYBvckQC"
        ]
      }
    },
    {
      "value": 2.00000000,
      "n": 1,
      "scriptPubKey": {
        "asm": "OP_DUP OP_HASH160 f040f3c484472098a4e2dbcfb6a1bb59dbcc7c19 OP_EQUALVERIFY OP_CHECKSIG",
        "hex": "76a914f040f3c484472098a4e2dbcfb6a1bb59dbcc7c1988ac",
        "reqSigs": 1,
        "type": "pubkeyhash",
        "addresses": [
          "n3RJH3zsGrTLDoSzWpbtcHRdmkdfHdknHY"
        ]
      }
    }
  ],
  "hex": "020000000001013ce7aa20a9edbf2ad5d659b62011d54d5ba1f666a0e49f530e49c3e2707fa3b80000000017160014838d83b78ebb5c4a7b6191f4c86be3528a6ffac2feffffff02e0faae2f0000000017a9146e4529a080512843f3fbef5c3945376ed8e51b808700c2eb0b000000001976a914f040f3c484472098a4e2dbcfb6a1bb59dbcc7c1988ac02473044022044d1c9cf131e1620ee9340531a27e3d5b284794a178183f41c357a9dd97a488a02206c49f40eaddd8e472a5dd20505ff2f64fbe7cadeb62c46c44acfa11a6292c4c3012102c0cfc9eedac419475f3ed9aec20d3474add9bfe86eac0cad6f4a7303a30fbb3400000000",
  "blockhash": "5f443c8420bbcdb7a1b48dae4827d6d991e57b400e5815d5fd3e4ffe23a02475",
  "confirmations": 111,
  "time": 1564041314,
  "blocktime": 1564041314
}
